{
  "_format": "hh-sol-artifact-1",
  "contractName": "DealToken",
  "sourceName": "contracts/MockToken.sol",
  "abi": [
    {
      "inputs": [],
      "stateMutability": "nonpayable",
      "type": "constructor"
    },
    {
      "inputs": [
        {
          "internalType": "address",
          "name": "spender",
          "type": "address"
        },
        {
          "internalType": "uint256",
          "name": "allowance",
          "type": "uint256"
        },
        {
          "internalType": "uint256",
          "name": "needed",
          "type": "uint256"
        }
      ],
      "name": "ERC20InsufficientAllowance",
      "type": "error"
    },
    {
      "inputs": [
        {
          "internalType": "address",
          "name": "sender",
          "type": "address"
        },
        {
          "internalType": "uint256",
          "name": "balance",
          "type": "uint256"
        },
        {
          "internalType": "uint256",
          "name": "needed",
          "type": "uint256"
        }
      ],
      "name": "ERC20InsufficientBalance",
      "type": "error"
    },
    {
      "inputs": [
        {
          "internalType": "address",
          "name": "approver",
          "type": "address"
        }
      ],
      "name": "ERC20InvalidApprover",
      "type": "error"
    },
    {
      "inputs": [
        {
          "internalType": "address",
          "name": "receiver",
          "type": "address"
        }
      ],
      "name": "ERC20InvalidReceiver",
      "type": "error"
    },
    {
      "inputs": [
        {
          "internalType": "address",
          "name": "sender",
          "type": "address"
        }
      ],
      "name": "ERC20InvalidSender",
      "type": "error"
    },
    {
      "inputs": [
        {
          "internalType": "address",
          "name": "spender",
          "type": "address"
        }
      ],
      "name": "ERC20InvalidSpender",
      "type": "error"
    },
    {
      "inputs": [
        {
          "internalType": "address",
          "name": "owner",
          "type": "address"
        }
      ],
      "name": "OwnableInvalidOwner",
      "type": "error"
    },
    {
      "inputs": [
        {
          "internalType": "address",
          "name": "account",
          "type": "address"
        }
      ],
      "name": "OwnableUnauthorizedAccount",
      "type": "error"
    },
    {
      "anonymous": false,
      "inputs": [
        {
          "indexed": true,
          "internalType": "address",
          "name": "owner",
          "type": "address"
        },
        {
          "indexed": true,
          "internalType": "address",
          "name": "spender",
          "type": "address"
        },
        {
          "indexed": false,
          "internalType": "uint256",
          "name": "value",
          "type": "uint256"
        }
      ],
      "name": "Approval",
      "type": "event"
    },
    {
      "anonymous": false,
      "inputs": [
        {
          "indexed": true,
          "internalType": "address",
          "name": "previousOwner",
          "type": "address"
        },
        {
          "indexed": true,
          "internalType": "address",
          "name": "newOwner",
          "type": "address"
        }
      ],
      "name": "OwnershipTransferred",
      "type": "event"
    },
    {
      "anonymous": false,
      "inputs": [
        {
          "indexed": true,
          "internalType": "address",
          "name": "buyer",
          "type": "address"
        },
        {
          "indexed": false,
          "internalType": "uint256",
          "name": "ethAmount",
          "type": "uint256"
        },
        {
          "indexed": false,
          "internalType": "uint256",
          "name": "tokenAmount",
          "type": "uint256"
        }
      ],
      "name": "TokensPurchased",
      "type": "event"
    },
    {
      "anonymous": false,
      "inputs": [
        {
          "indexed": true,
          "internalType": "address",
          "name": "seller",
          "type": "address"
        },
        {
          "indexed": false,
          "internalType": "uint256",
          "name": "tokenAmount",
          "type": "uint256"
        },
        {
          "indexed": false,
          "internalType": "uint256",
          "name": "ethAmount",
          "type": "uint256"
        }
      ],
      "name": "TokensSold",
      "type": "event"
    },
    {
      "anonymous": false,
      "inputs": [
        {
          "indexed": true,
          "internalType": "address",
          "name": "from",
          "type": "address"
        },
        {
          "indexed": true,
          "internalType": "address",
          "name": "to",
          "type": "address"
        },
        {
          "indexed": false,
          "internalType": "uint256",
          "name": "value",
          "type": "uint256"
        }
      ],
      "name": "Transfer",
      "type": "event"
    },
    {
      "inputs": [
        {
          "internalType": "address",
          "name": "owner",
          "type": "address"
        },
        {
          "internalType": "address",
          "name": "spender",
          "type": "address"
        }
      ],
      "name": "allowance",
      "outputs": [
        {
          "internalType": "uint256",
          "name": "",
          "type": "uint256"
        }
      ],
      "stateMutability": "view",
      "type": "function"
    },
    {
      "inputs": [
        {
          "internalType": "address",
          "name": "spender",
          "type": "address"
        },
        {
          "internalType": "uint256",
          "name": "value",
          "type": "uint256"
        }
      ],
      "name": "approve",
      "outputs": [
        {
          "internalType": "bool",
          "name": "",
          "type": "bool"
        }
      ],
      "stateMutability": "nonpayable",
      "type": "function"
    },
    {
      "inputs": [
        {
          "internalType": "address",
          "name": "account",
          "type": "address"
        }
      ],
      "name": "balanceOf",
      "outputs": [
        {
          "internalType": "uint256",
          "name": "",
          "type": "uint256"
        }
      ],
      "stateMutability": "view",
      "type": "function"
    },
    {
      "inputs": [],
      "name": "basePrice",
      "outputs": [
        {
          "internalType": "uint256",
          "name": "",
          "type": "uint256"
        }
      ],
      "stateMutability": "view",
      "type": "function"
    },
    {
      "inputs": [],
      "name": "buy",
      "outputs": [],
      "stateMutability": "payable",
      "type": "function"
    },
    {
      "inputs": [],
      "name": "decimals",
      "outputs": [
        {
          "internalType": "uint8",
          "name": "",
          "type": "uint8"
        }
      ],
      "stateMutability": "view",
      "type": "function"
    },
    {
      "inputs": [],
      "name": "getCurrentPrice",
      "outputs": [
        {
          "internalType": "uint256",
          "name": "",
          "type": "uint256"
        }
      ],
      "stateMutability": "view",
      "type": "function"
    },
    {
      "inputs": [],
      "name": "name",
      "outputs": [
        {
          "internalType": "string",
          "name": "",
          "type": "string"
        }
      ],
      "stateMutability": "view",
      "type": "function"
    },
    {
      "inputs": [],
      "name": "owner",
      "outputs": [
        {
          "internalType": "address",
          "name": "",
          "type": "address"
        }
      ],
      "stateMutability": "view",
      "type": "function"
    },
    {
      "inputs": [],
      "name": "priceIncreaseFactor",
      "outputs": [
        {
          "internalType": "uint256",
          "name": "",
          "type": "uint256"
        }
      ],
      "stateMutability": "view",
      "type": "function"
    },
    {
      "inputs": [],
      "name": "renounceOwnership",
      "outputs": [],
      "stateMutability": "nonpayable",
      "type": "function"
    },
    {
      "inputs": [
        {
          "internalType": "uint256",
          "name": "tokenAmount",
          "type": "uint256"
        }
      ],
      "name": "sell",
      "outputs": [],
      "stateMutability": "nonpayable",
      "type": "function"
    },
    {
      "inputs": [],
      "name": "symbol",
      "outputs": [
        {
          "internalType": "string",
          "name": "",
          "type": "string"
        }
      ],
      "stateMutability": "view",
      "type": "function"
    },
    {
      "inputs": [],
      "name": "totalEthCollected",
      "outputs": [
        {
          "internalType": "uint256",
          "name": "",
          "type": "uint256"
        }
      ],
      "stateMutability": "view",
      "type": "function"
    },
    {
      "inputs": [],
      "name": "totalSupply",
      "outputs": [
        {
          "internalType": "uint256",
          "name": "",
          "type": "uint256"
        }
      ],
      "stateMutability": "view",
      "type": "function"
    },
    {
      "inputs": [
        {
          "internalType": "address",
          "name": "to",
          "type": "address"
        },
        {
          "internalType": "uint256",
          "name": "value",
          "type": "uint256"
        }
      ],
      "name": "transfer",
      "outputs": [
        {
          "internalType": "bool",
          "name": "",
          "type": "bool"
        }
      ],
      "stateMutability": "nonpayable",
      "type": "function"
    },
    {
      "inputs": [
        {
          "internalType": "address",
          "name": "from",
          "type": "address"
        },
        {
          "internalType": "address",
          "name": "to",
          "type": "address"
        },
        {
          "internalType": "uint256",
          "name": "value",
          "type": "uint256"
        }
      ],
      "name": "transferFrom",
      "outputs": [
        {
          "internalType": "bool",
          "name": "",
          "type": "bool"
        }
      ],
      "stateMutability": "nonpayable",
      "type": "function"
    },
    {
      "inputs": [
        {
          "internalType": "address",
          "name": "newOwner",
          "type": "address"
        }
      ],
      "name": "transferOwnership",
      "outputs": [],
      "stateMutability": "nonpayable",
      "type": "function"
    },
    {
      "inputs": [
        {
          "internalType": "uint256",
          "name": "_newBasePrice",
          "type": "uint256"
        }
      ],
      "name": "updateBasePrice",
      "outputs": [],
      "stateMutability": "nonpayable",
      "type": "function"
    },
    {
      "inputs": [
        {
          "internalType": "uint256",
          "name": "_newFactor",
          "type": "uint256"
        }
      ],
      "name": "updatePriceIncreaseFactor",
      "outputs": [],
      "stateMutability": "nonpayable",
      "type": "function"
    }
  ],
  "bytecode": "0x608060405266038d7ea4c680006006556710a741a462780000600755348015610026575f5ffd5b50336040518060400160405280600a8152602001692222a0a6102a37b5b2b760b11b815250604051806040016040528060048152602001631111505360e21b8152508160039081610077919061031f565b506004610084828261031f565b5050506001600160a01b0381166100b557604051631e4fbdf760e01b81525f60048201526024015b60405180910390fd5b6100be816100d8565b506100d33369d3c21bcecceda1000000610129565b6103fe565b600580546001600160a01b038381166001600160a01b0319831681179093556040519116919082907f8be0079c531659141344cd1fd0a4f28419497f9722a3daafe3b4186f6b6457e0905f90a35050565b6001600160a01b0382166101525760405163ec442f0560e01b81525f60048201526024016100ac565b61015d5f8383610161565b5050565b6001600160a01b03831661018b578060025f82825461018091906103d9565b909155506101fb9050565b6001600160a01b0383165f90815260208190526040902054818110156101dd5760405163391434e360e21b81526001600160a01b038516600482015260248101829052604481018390526064016100ac565b6001600160a01b0384165f9081526020819052604090209082900390555b6001600160a01b03821661021757600280548290039055610235565b6001600160a01b0382165f9081526020819052604090208054820190555b816001600160a01b0316836001600160a01b03167fddf252ad1be2c89b69c2b068fc378daa952ba7f163c4a11628f55a4df523b3ef8360405161027a91815260200190565b60405180910390a3505050565b634e487b7160e01b5f52604160045260245ffd5b600181811c908216806102af57607f821691505b6020821081036102cd57634e487b7160e01b5f52602260045260245ffd5b50919050565b601f82111561031a57805f5260205f20601f840160051c810160208510156102f85750805b601f840160051c820191505b81811015610317575f8155600101610304565b50505b505050565b81516001600160401b0381111561033857610338610287565b61034c81610346845461029b565b846102d3565b6020601f82116001811461037e575f83156103675750848201515b5f19600385901b1c1916600184901b178455610317565b5f84815260208120601f198516915b828110156103ad578785015182556020948501946001909201910161038d565b50848210156103ca57868401515f19600387901b60f8161c191681555b50505050600190811b01905550565b808201808211156103f857634e487b7160e01b5f52601160045260245ffd5b92915050565b610fe58061040b5f395ff3fe60806040526004361061011b575f3560e01c806395d89b411161009d578063dd62ed3e11610062578063dd62ed3e146102da578063e4849b321461031e578063eb91d37e1461033d578063f2fde38b14610351578063fd5baa8814610370575f5ffd5b806395d89b4114610275578063a6f2ae3a14610289578063a9059cbb14610291578063c7876ea4146102b0578063ce2a9f62146102c5575f5ffd5b806334436707116100e357806334436707146101d05780636e97b47b146101f157806370a0823114610206578063715018a61461023a5780638da5cb5b1461024e575f5ffd5b806306fdde031461011f578063095ea7b31461014957806318160ddd1461017857806323b872dd14610196578063313ce567146101b5575b5f5ffd5b34801561012a575f5ffd5b5061013361038f565b6040516101409190610ded565b60405180910390f35b348015610154575f5ffd5b50610168610163366004610e3d565b61041f565b6040519015158152602001610140565b348015610183575f5ffd5b506002545b604051908152602001610140565b3480156101a1575f5ffd5b506101686101b0366004610e65565b610438565b3480156101c0575f5ffd5b5060405160128152602001610140565b3480156101db575f5ffd5b506101ef6101ea366004610e9f565b61045b565b005b3480156101fc575f5ffd5b5061018860075481565b348015610211575f5ffd5b50610188610220366004610eb6565b6001600160a01b03165f9081526020819052604090205490565b348015610245575f5ffd5b506101ef6104c5565b348015610259575f5ffd5b506005546040516001600160a01b039091168152602001610140565b348015610280575f5ffd5b506101336104d8565b6101ef6104e7565b34801561029c575f5ffd5b506101686102ab366004610e3d565b6106ae565b3480156102bb575f5ffd5b5061018860065481565b3480156102d0575f5ffd5b5061018860085481565b3480156102e5575f5ffd5b506101886102f4366004610ed6565b6001600160a01b039182165f90815260016020908152604080832093909416825291909152205490565b348015610329575f5ffd5b506101ef610338366004610e9f565b6106bb565b348015610348575f5ffd5b50610188610943565b34801561035c575f5ffd5b506101ef61036b366004610eb6565b6109d6565b34801561037b575f5ffd5b506101ef61038a366004610e9f565b610a13565b60606003805461039e90610f07565b80601f01602080910402602001604051908101604052809291908181526020018280546103ca90610f07565b80156104155780601f106103ec57610100808354040283529160200191610415565b820191905f5260205f20905b8154815290600101906020018083116103f857829003601f168201915b5050505050905090565b5f3361042c818585610a20565b60019150505b92915050565b5f33610445858285610a32565b610450858585610aae565b506001949350505050565b610463610b0b565b670de0b6b3a76400008110156104c05760405162461bcd60e51b815260206004820152601b60248201527f466163746f72206d757374206265206174206c6561737420312e30000000000060448201526064015b60405180910390fd5b600755565b6104cd610b0b565b6104d65f610b38565b565b60606004805461039e90610f07565b5f34116105365760405162461bcd60e51b815260206004820152601b60248201527f4d7573742073656e642045544820746f2062757920746f6b656e73000000000060448201526064016104b7565b5f61053f610943565b90505f81116105905760405162461bcd60e51b815260206004820152601760248201527f50726963652063616c63756c6174696f6e206572726f7200000000000000000060448201526064016104b7565b5f816105a434670de0b6b3a7640000610f53565b6105ae9190610f6a565b90505f6105ba60025490565b90506a084595161401484a0000006105d28383610f89565b11156105f0576105ed816a084595161401484a000000610f9c565b91505b5f821161064d5760405162461bcd60e51b815260206004820152602560248201527f4e6f7420656e6f756768204554482073656e7420746f2062757920616e7920746044820152646f6b656e7360d81b60648201526084016104b7565b3460085f82825461065e9190610f89565b9091555061066e90503383610b89565b604080513481526020810184905233917f8fafebcaf9d154343dad25669bfa277f4fbacd7ac6b0c4fed522580e040a0f33910160405180910390a2505050565b5f3361042c818585610aae565b5f811161070a5760405162461bcd60e51b815260206004820152601b60248201527f4d7573742073656c6c206120706f73697469766520616d6f756e74000000000060448201526064016104b7565b335f908152602081905260409020548111156107685760405162461bcd60e51b815260206004820152601a60248201527f496e73756666696369656e7420746f6b656e2062616c616e636500000000000060448201526064016104b7565b47806107b65760405162461bcd60e51b815260206004820152601a60248201527f436f6e747261637420686173206e6f2045544820746f2070617900000000000060448201526064016104b7565b5f6107bf610943565b90505f60646107cf83605a610f53565b6107d99190610f6a565b90505f670de0b6b3a76400006107ef8387610f53565b6107f99190610f6a565b9050838111156108065750825b5f81116108555760405162461bcd60e51b815260206004820152601860248201527f4e6f7420656e6f7567682045544820746f2072657475726e000000000000000060448201526064016104b7565b61085f3386610bc1565b8060085f8282546108709190610f9c565b90915550506040515f90339083908381818185875af1925050503d805f81146108b4576040519150601f19603f3d011682016040523d82523d5f602084013e6108b9565b606091505b50509050806109005760405162461bcd60e51b8152602060048201526013602482015272115512081d1c985b9cd9995c8819985a5b1959606a1b60448201526064016104b7565b604080518781526020810184905233917f2dcf9433d75db0d8b1c172641f85e319ffe4ad22e108a95d1847ceb906e5195d910160405180910390a2505050505050565b5f5f61094e60025490565b90506a084595161401484a000000811061096a575f1991505090565b5f6a084595161401484a00000061098983670de0b6b3a7640000610f53565b6109939190610f6a565b90505f670de0b6b3a7640000806007546109ad9190610f9c565b6109b79084610f53565b6109c19190610f6a565b6006546109ce9190610f89565b949350505050565b6109de610b0b565b6001600160a01b038116610a0757604051631e4fbdf760e01b81525f60048201526024016104b7565b610a1081610b38565b50565b610a1b610b0b565b600655565b610a2d8383836001610bf5565b505050565b6001600160a01b038381165f908152600160209081526040808320938616835292905220545f19811015610aa85781811015610a9a57604051637dc7a0d960e11b81526001600160a01b038416600482015260248101829052604481018390526064016104b7565b610aa884848484035f610bf5565b50505050565b6001600160a01b038316610ad757604051634b637e8f60e11b81525f60048201526024016104b7565b6001600160a01b038216610b005760405163ec442f0560e01b81525f60048201526024016104b7565b610a2d838383610cc7565b6005546001600160a01b031633146104d65760405163118cdaa760e01b81523360048201526024016104b7565b600580546001600160a01b038381166001600160a01b0319831681179093556040519116919082907f8be0079c531659141344cd1fd0a4f28419497f9722a3daafe3b4186f6b6457e0905f90a35050565b6001600160a01b038216610bb25760405163ec442f0560e01b81525f60048201526024016104b7565b610bbd5f8383610cc7565b5050565b6001600160a01b038216610bea57604051634b637e8f60e11b81525f60048201526024016104b7565b610bbd825f83610cc7565b6001600160a01b038416610c1e5760405163e602df0560e01b81525f60048201526024016104b7565b6001600160a01b038316610c4757604051634a1406b160e11b81525f60048201526024016104b7565b6001600160a01b038085165f9081526001602090815260408083209387168352929052208290558015610aa857826001600160a01b0316846001600160a01b03167f8c5be1e5ebec7d5bd14f71427d1e84f3dd0314c0f7b2291e5b200ac8c7c3b92584604051610cb991815260200190565b60405180910390a350505050565b6001600160a01b038316610cf1578060025f828254610ce69190610f89565b90915550610d619050565b6001600160a01b0383165f9081526020819052604090205481811015610d435760405163391434e360e21b81526001600160a01b038516600482015260248101829052604481018390526064016104b7565b6001600160a01b0384165f9081526020819052604090209082900390555b6001600160a01b038216610d7d57600280548290039055610d9b565b6001600160a01b0382165f9081526020819052604090208054820190555b816001600160a01b0316836001600160a01b03167fddf252ad1be2c89b69c2b068fc378daa952ba7f163c4a11628f55a4df523b3ef83604051610de091815260200190565b60405180910390a3505050565b602081525f82518060208401528060208501604085015e5f604082850101526040601f19601f83011684010191505092915050565b80356001600160a01b0381168114610e38575f5ffd5b919050565b5f5f60408385031215610e4e575f5ffd5b610e5783610e22565b946020939093013593505050565b5f5f5f60608486031215610e77575f5ffd5b610e8084610e22565b9250610e8e60208501610e22565b929592945050506040919091013590565b5f60208284031215610eaf575f5ffd5b5035919050565b5f60208284031215610ec6575f5ffd5b610ecf82610e22565b9392505050565b5f5f60408385031215610ee7575f5ffd5b610ef083610e22565b9150610efe60208401610e22565b90509250929050565b600181811c90821680610f1b57607f821691505b602082108103610f3957634e487b7160e01b5f52602260045260245ffd5b50919050565b634e487b7160e01b5f52601160045260245ffd5b808202811582820484141761043257610432610f3f565b5f82610f8457634e487b7160e01b5f52601260045260245ffd5b500490565b8082018082111561043257610432610f3f565b8181038181111561043257610432610f3f56fea26469706673582212203cbb6212383af8d68b9f8cdb3ef67e39e70abf67001a49ff4f76596b728deedb64736f6c634300081c0033",
  "linkReferences": {},
  "deployedLinkReferences": {}
}