{
  "_format": "hh-sol-artifact-1",
  "contractName": "Linking",
  "sourceName": "contracts/Linking.sol",
  "abi": [
    {
      "inputs": [],
      "stateMutability": "nonpayable",
      "type": "constructor"
    },
    {
      "anonymous": false,
      "inputs": [
        {
          "indexed": true,
          "internalType": "address",
          "name": "wallet",
          "type": "address"
        },
        {
          "indexed": false,
          "internalType": "string",
          "name": "agentAddress",
          "type": "string"
        },
        {
          "indexed": false,
          "internalType": "uint256",
          "name": "timestamp",
          "type": "uint256"
        }
      ],
      "name": "KeysLinked",
      "type": "event"
    },
    {
      "anonymous": false,
      "inputs": [
        {
          "indexed": true,
          "internalType": "address",
          "name": "newOwner",
          "type": "address"
        },
        {
          "indexed": true,
          "internalType": "address",
          "name": "addedBy",
          "type": "address"
        }
      ],
      "name": "OwnerAdded",
      "type": "event"
    },
    {
      "anonymous": false,
      "inputs": [
        {
          "indexed": true,
          "internalType": "address",
          "name": "removedOwner",
          "type": "address"
        },
        {
          "indexed": true,
          "internalType": "address",
          "name": "removedBy",
          "type": "address"
        }
      ],
      "name": "OwnerRemoved",
      "type": "event"
    },
    {
      "inputs": [
        {
          "internalType": "address",
          "name": "_newOwner",
          "type": "address"
        }
      ],
      "name": "addOwner",
      "outputs": [],
      "stateMutability": "nonpayable",
      "type": "function"
    },
    {
      "inputs": [
        {
          "internalType": "address",
          "name": "_walletAddress",
          "type": "address"
        }
      ],
      "name": "getAgentAddress",
      "outputs": [
        {
          "internalType": "string",
          "name": "",
          "type": "string"
        }
      ],
      "stateMutability": "view",
      "type": "function"
    },
    {
      "inputs": [
        {
          "internalType": "address",
          "name": "_walletAddress",
          "type": "address"
        }
      ],
      "name": "getLinkTimestamp",
      "outputs": [
        {
          "internalType": "uint256",
          "name": "",
          "type": "uint256"
        }
      ],
      "stateMutability": "view",
      "type": "function"
    },
    {
      "inputs": [
        {
          "internalType": "address",
          "name": "_walletAddress",
          "type": "address"
        }
      ],
      "name": "hasLinkedKeys",
      "outputs": [
        {
          "internalType": "bool",
          "name": "",
          "type": "bool"
        }
      ],
      "stateMutability": "view",
      "type": "function"
    },
    {
      "inputs": [
        {
          "internalType": "address",
          "name": "_address",
          "type": "address"
        }
      ],
      "name": "isOwner",
      "outputs": [
        {
          "internalType": "bool",
          "name": "",
          "type": "bool"
        }
      ],
      "stateMutability": "view",
      "type": "function"
    },
    {
      "inputs": [
        {
          "internalType": "string",
          "name": "_agentAddress",
          "type": "string"
        }
      ],
      "name": "linkKeys",
      "outputs": [],
      "stateMutability": "nonpayable",
      "type": "function"
    },
    {
      "inputs": [
        {
          "internalType": "address",
          "name": "_walletAddress",
          "type": "address"
        },
        {
          "internalType": "string",
          "name": "_agentAddress",
          "type": "string"
        }
      ],
      "name": "linkKeysForAddress",
      "outputs": [],
      "stateMutability": "nonpayable",
      "type": "function"
    },
    {
      "inputs": [
        {
          "internalType": "address",
          "name": "_owner",
          "type": "address"
        }
      ],
      "name": "removeOwner",
      "outputs": [],
      "stateMutability": "nonpayable",
      "type": "function"
    }
  ],
  "bytecode": "0x6080604052348015600e575f5ffd5b50335f818152600160208190526040808320805460ff19169092179091555182917fc82bdbbf677a2462f2a7e22e4ba9abd209496b69cd7b868b3b1d28f76e09a40a91a36109668061005f5f395ff3fe608060405234801561000f575f5ffd5b5060043610610085575f3560e01c80637065cb48116100585780637065cb48146101375780638743de101461014a578063c444124b1461015d578063d7fa02db14610170575f5ffd5b8063173825d9146100895780631db223041461009e57806327d54a92146100dc5780632f54bf6e146100fc575b5f5ffd5b61009c610097366004610626565b610183565b005b6100c96100ac366004610626565b6001600160a01b03165f9081526020819052604090206001015490565b6040519081526020015b60405180910390f35b6100ef6100ea366004610626565b610288565b6040516100d39190610674565b61012761010a366004610626565b6001600160a01b03165f9081526001602052604090205460ff1690565b60405190151581526020016100d3565b61009c610145366004610626565b610331565b61009c610158366004610725565b610452565b61012761016b366004610626565b610557565b61009c61017e366004610770565b610586565b335f9081526001602052604090205460ff166101ba5760405162461bcd60e51b81526004016101b1906107aa565b60405180910390fd5b336001600160a01b038216036102075760405162461bcd60e51b815260206004820152601260248201527121b0b73737ba103932b6b7bb329039b2b63360711b60448201526064016101b1565b6001600160a01b0381165f9081526001602052604090205460ff1661023e5760405162461bcd60e51b81526004016101b1906107aa565b6001600160a01b0381165f81815260016020526040808220805460ff19169055513392917fe594d081b4382713733fe631966432c9cea5199afb2db5c3c1931f9f9300367991a350565b6001600160a01b0381165f9081526020819052604090208054606091906102ae906107d0565b80601f01602080910402602001604051908101604052809291908181526020018280546102da906107d0565b80156103255780601f106102fc57610100808354040283529160200191610325565b820191905f5260205f20905b81548152906001019060200180831161030857829003601f168201915b50505050509050919050565b335f9081526001602052604090205460ff1661035f5760405162461bcd60e51b81526004016101b1906107aa565b6001600160a01b0381166103a75760405162461bcd60e51b815260206004820152600f60248201526e496e76616c6964206164647265737360881b60448201526064016101b1565b6001600160a01b0381165f9081526001602052604090205460ff16156104025760405162461bcd60e51b815260206004820152601060248201526f20b63932b0b23c9030b71037bbb732b960811b60448201526064016101b1565b6001600160a01b0381165f818152600160208190526040808320805460ff1916909217909155513392917fc82bdbbf677a2462f2a7e22e4ba9abd209496b69cd7b868b3b1d28f76e09a40a91a350565b335f9081526001602052604090205460ff166104805760405162461bcd60e51b81526004016101b1906107aa565b6001600160a01b0382166104c85760405162461bcd60e51b815260206004820152600f60248201526e496e76616c6964206164647265737360881b60448201526064016101b1565b604080518082018252828152426020808301919091526001600160a01b0385165f9081529081905291909120815181906105029082610854565b5060208201518160010155905050816001600160a01b03167fc13c11a4f230c3319d8459b55d853973cddb271d1ef97904351c88dfacfd54a3824260405161054b92919061090f565b60405180910390a25050565b6001600160a01b0381165f908152602081905260408120805482919061057c906107d0565b9050119050919050565b60408051808201825282815242602080830191909152335f9081529081905291909120815181906105b79082610854565b5060208201518160010155905050336001600160a01b03167fc13c11a4f230c3319d8459b55d853973cddb271d1ef97904351c88dfacfd54a3824260405161060092919061090f565b60405180910390a250565b80356001600160a01b0381168114610621575f5ffd5b919050565b5f60208284031215610636575f5ffd5b61063f8261060b565b9392505050565b5f81518084528060208401602086015e5f602082860101526020601f19601f83011685010191505092915050565b602081525f61063f6020830184610646565b634e487b7160e01b5f52604160045260245ffd5b5f82601f8301126106a9575f5ffd5b813567ffffffffffffffff8111156106c3576106c3610686565b604051601f8201601f19908116603f0116810167ffffffffffffffff811182821017156106f2576106f2610686565b604052818152838201602001851015610709575f5ffd5b816020850160208301375f918101602001919091529392505050565b5f5f60408385031215610736575f5ffd5b61073f8361060b565b9150602083013567ffffffffffffffff81111561075a575f5ffd5b6107668582860161069a565b9150509250929050565b5f60208284031215610780575f5ffd5b813567ffffffffffffffff811115610796575f5ffd5b6107a28482850161069a565b949350505050565b6020808252600c908201526b2737ba1030b71037bbb732b960a11b604082015260600190565b600181811c908216806107e457607f821691505b60208210810361080257634e487b7160e01b5f52602260045260245ffd5b50919050565b601f82111561084f57805f5260205f20601f840160051c8101602085101561082d5750805b601f840160051c820191505b8181101561084c575f8155600101610839565b50505b505050565b815167ffffffffffffffff81111561086e5761086e610686565b6108828161087c84546107d0565b84610808565b6020601f8211600181146108b4575f831561089d5750848201515b5f19600385901b1c1916600184901b17845561084c565b5f84815260208120601f198516915b828110156108e357878501518255602094850194600190920191016108c3565b508482101561090057868401515f19600387901b60f8161c191681555b50505050600190811b01905550565b604081525f6109216040830185610646565b9050826020830152939250505056fea2646970667358221220767cec31242ba05af76529192eec4db74c98582fbb530f00b37f3734204127dc64736f6c634300081c0033",
  "linkReferences": {},
  "deployedLinkReferences": {}
}