{
  "_format": "hh-sol-artifact-1",
  "contractName": "Linking",
  "sourceName": "contracts/Linking.sol",
  "abi": [
    {
      "inputs": [],
      "stateMutability": "nonpayable",
      "type": "constructor"
    },
    {
      "anonymous": false,
      "inputs": [
        {
          "indexed": true,
          "internalType": "address",
          "name": "wallet",
          "type": "address"
        },
        {
          "indexed": false,
          "internalType": "string",
          "name": "publicKey",
          "type": "string"
        },
        {
          "indexed": false,
          "internalType": "uint256",
          "name": "timestamp",
          "type": "uint256"
        }
      ],
      "name": "KeysLinked",
      "type": "event"
    },
    {
      "anonymous": false,
      "inputs": [
        {
          "indexed": true,
          "internalType": "address",
          "name": "newOwner",
          "type": "address"
        },
        {
          "indexed": true,
          "internalType": "address",
          "name": "addedBy",
          "type": "address"
        }
      ],
      "name": "OwnerAdded",
      "type": "event"
    },
    {
      "anonymous": false,
      "inputs": [
        {
          "indexed": true,
          "internalType": "address",
          "name": "removedOwner",
          "type": "address"
        },
        {
          "indexed": true,
          "internalType": "address",
          "name": "removedBy",
          "type": "address"
        }
      ],
      "name": "OwnerRemoved",
      "type": "event"
    },
    {
      "inputs": [
        {
          "internalType": "address",
          "name": "_newOwner",
          "type": "address"
        }
      ],
      "name": "addOwner",
      "outputs": [],
      "stateMutability": "nonpayable",
      "type": "function"
    },
    {
      "inputs": [
        {
          "internalType": "address",
          "name": "_walletAddress",
          "type": "address"
        }
      ],
      "name": "getLinkTimestamp",
      "outputs": [
        {
          "internalType": "uint256",
          "name": "",
          "type": "uint256"
        }
      ],
      "stateMutability": "view",
      "type": "function"
    },
    {
      "inputs": [
        {
          "internalType": "address",
          "name": "_walletAddress",
          "type": "address"
        }
      ],
      "name": "getPrivateKey",
      "outputs": [
        {
          "internalType": "string",
          "name": "",
          "type": "string"
        }
      ],
      "stateMutability": "view",
      "type": "function"
    },
    {
      "inputs": [
        {
          "internalType": "address",
          "name": "_walletAddress",
          "type": "address"
        }
      ],
      "name": "getPublicKey",
      "outputs": [
        {
          "internalType": "string",
          "name": "",
          "type": "string"
        }
      ],
      "stateMutability": "view",
      "type": "function"
    },
    {
      "inputs": [
        {
          "internalType": "address",
          "name": "_walletAddress",
          "type": "address"
        }
      ],
      "name": "hasLinkedKeys",
      "outputs": [
        {
          "internalType": "bool",
          "name": "",
          "type": "bool"
        }
      ],
      "stateMutability": "view",
      "type": "function"
    },
    {
      "inputs": [
        {
          "internalType": "address",
          "name": "_address",
          "type": "address"
        }
      ],
      "name": "isOwner",
      "outputs": [
        {
          "internalType": "bool",
          "name": "",
          "type": "bool"
        }
      ],
      "stateMutability": "view",
      "type": "function"
    },
    {
      "inputs": [
        {
          "internalType": "string",
          "name": "_privateKey",
          "type": "string"
        },
        {
          "internalType": "string",
          "name": "_publicKey",
          "type": "string"
        }
      ],
      "name": "linkKeys",
      "outputs": [],
      "stateMutability": "nonpayable",
      "type": "function"
    },
    {
      "inputs": [
        {
          "internalType": "address",
          "name": "_walletAddress",
          "type": "address"
        },
        {
          "internalType": "string",
          "name": "_privateKey",
          "type": "string"
        },
        {
          "internalType": "string",
          "name": "_publicKey",
          "type": "string"
        }
      ],
      "name": "linkKeysForAddress",
      "outputs": [],
      "stateMutability": "nonpayable",
      "type": "function"
    },
    {
      "inputs": [
        {
          "internalType": "address",
          "name": "_owner",
          "type": "address"
        }
      ],
      "name": "removeOwner",
      "outputs": [],
      "stateMutability": "nonpayable",
      "type": "function"
    }
  ],
  "bytecode": "0x6080604052348015600e575f5ffd5b50335f818152600160208190526040808320805460ff19169092179091555182917fc82bdbbf677a2462f2a7e22e4ba9abd209496b69cd7b868b3b1d28f76e09a40a91a3610a5b8061005f5f395ff3fe608060405234801561000f575f5ffd5b5060043610610090575f3560e01c80635addbbaf116100635780635addbbaf146101355780637065cb4814610148578063857cdbb81461015b578063c444124b1461017b578063d0f9b3dc1461018e575f5ffd5b8063120ac4f314610094578063173825d9146100a95780631db22304146100bc5780632f54bf6e146100fa575b5f5ffd5b6100a76100a2366004610766565b6101a1565b005b6100a76100b73660046107da565b6102c9565b6100e76100ca3660046107da565b6001600160a01b03165f9081526020819052604090206002015490565b6040519081526020015b60405180910390f35b6101256101083660046107da565b6001600160a01b03165f9081526001602052604090205460ff1690565b60405190151581526020016100f1565b6100a76101433660046107fa565b6103c5565b6100a76101563660046107da565b61045a565b61016e6101693660046107da565b61057b565b6040516100f1919061088d565b6101256101893660046107da565b610627565b61016e61019c3660046107da565b610659565b335f9081526001602052604090205460ff166101d85760405162461bcd60e51b81526004016101cf9061089f565b60405180910390fd5b6001600160a01b0383166102205760405162461bcd60e51b815260206004820152600f60248201526e496e76616c6964206164647265737360881b60448201526064016101cf565b60408051606081018252838152602080820184905242828401526001600160a01b0386165f90815290819052919091208151819061025e9082610949565b50602082015160018201906102739082610949565b5060408201518160020155905050826001600160a01b03167fc13c11a4f230c3319d8459b55d853973cddb271d1ef97904351c88dfacfd54a382426040516102bc929190610a04565b60405180910390a2505050565b335f9081526001602052604090205460ff166102f75760405162461bcd60e51b81526004016101cf9061089f565b336001600160a01b038216036103445760405162461bcd60e51b815260206004820152601260248201527121b0b73737ba103932b6b7bb329039b2b63360711b60448201526064016101cf565b6001600160a01b0381165f9081526001602052604090205460ff1661037b5760405162461bcd60e51b81526004016101cf9061089f565b6001600160a01b0381165f81815260016020526040808220805460ff19169055513392917fe594d081b4382713733fe631966432c9cea5199afb2db5c3c1931f9f9300367991a350565b6040805160608101825283815260208082018490524282840152335f9081529081905291909120815181906103fa9082610949565b506020820151600182019061040f9082610949565b506040918201516002909101555133907fc13c11a4f230c3319d8459b55d853973cddb271d1ef97904351c88dfacfd54a39061044e9084904290610a04565b60405180910390a25050565b335f9081526001602052604090205460ff166104885760405162461bcd60e51b81526004016101cf9061089f565b6001600160a01b0381166104d05760405162461bcd60e51b815260206004820152600f60248201526e496e76616c6964206164647265737360881b60448201526064016101cf565b6001600160a01b0381165f9081526001602052604090205460ff161561052b5760405162461bcd60e51b815260206004820152601060248201526f20b63932b0b23c9030b71037bbb732b960811b60448201526064016101cf565b6001600160a01b0381165f818152600160208190526040808320805460ff1916909217909155513392917fc82bdbbf677a2462f2a7e22e4ba9abd209496b69cd7b868b3b1d28f76e09a40a91a350565b6001600160a01b0381165f9081526020819052604090206001018054606091906105a4906108c5565b80601f01602080910402602001604051908101604052809291908181526020018280546105d0906108c5565b801561061b5780601f106105f25761010080835404028352916020019161061b565b820191905f5260205f20905b8154815290600101906020018083116105fe57829003601f168201915b50505050509050919050565b6001600160a01b0381165f908152602081905260408120600101805482919061064f906108c5565b9050119050919050565b335f9081526001602052604090205460609060ff1661068a5760405162461bcd60e51b81526004016101cf9061089f565b6001600160a01b0382165f90815260208190526040902080546105a4906108c5565b919050565b80356001600160a01b03811681146106ac575f5ffd5b634e487b7160e01b5f52604160045260245ffd5b5f82601f8301126106ea575f5ffd5b813567ffffffffffffffff811115610704576107046106c7565b604051601f8201601f19908116603f0116810167ffffffffffffffff81118282101715610733576107336106c7565b60405281815283820160200185101561074a575f5ffd5b816020850160208301375f918101602001919091529392505050565b5f5f5f60608486031215610778575f5ffd5b610781846106b1565b9250602084013567ffffffffffffffff81111561079c575f5ffd5b6107a8868287016106db565b925050604084013567ffffffffffffffff8111156107c4575f5ffd5b6107d0868287016106db565b9150509250925092565b5f602082840312156107ea575f5ffd5b6107f3826106b1565b9392505050565b5f5f6040838503121561080b575f5ffd5b823567ffffffffffffffff811115610821575f5ffd5b61082d858286016106db565b925050602083013567ffffffffffffffff811115610849575f5ffd5b610855858286016106db565b9150509250929050565b5f81518084528060208401602086015e5f602082860101526020601f19601f83011685010191505092915050565b602081525f6107f3602083018461085f565b6020808252600c908201526b2737ba1030b71037bbb732b960a11b604082015260600190565b600181811c908216806108d957607f821691505b6020821081036108f757634e487b7160e01b5f52602260045260245ffd5b50919050565b601f82111561094457805f5260205f20601f840160051c810160208510156109225750805b601f840160051c820191505b81811015610941575f815560010161092e565b50505b505050565b815167ffffffffffffffff811115610963576109636106c7565b6109778161097184546108c5565b846108fd565b6020601f8211600181146109a9575f83156109925750848201515b5f19600385901b1c1916600184901b178455610941565b5f84815260208120601f198516915b828110156109d857878501518255602094850194600190920191016109b8565b50848210156109f557868401515f19600387901b60f8161c191681555b50505050600190811b01905550565b604081525f610a16604083018561085f565b9050826020830152939250505056fea26469706673582212207e9e669c93e7d76b898b0718e819fb50807ea2023d1866f24fc17cd89242c33e64736f6c634300081c0033",
  "linkReferences": {},
  "deployedLinkReferences": {}
}